{
  "_format": "hh3-artifact-1",
  "contractName": "Voting",
  "sourceName": "contracts/Voting.sol",
  "abi": [
    {
      "inputs": [
        {
          "internalType": "string[]",
          "name": "_candidateNames",
          "type": "string[]"
        },
        {
          "internalType": "uint256",
          "name": "_durationInMinutes",
          "type": "uint256"
        }
      ],
      "stateMutability": "nonpayable",
      "type": "constructor"
    },
    {
      "inputs": [
        {
          "internalType": "uint256",
          "name": "",
          "type": "uint256"
        }
      ],
      "name": "candidates",
      "outputs": [
        {
          "internalType": "uint256",
          "name": "id",
          "type": "uint256"
        },
        {
          "internalType": "string",
          "name": "name",
          "type": "string"
        },
        {
          "internalType": "uint256",
          "name": "voteCount",
          "type": "uint256"
        }
      ],
      "stateMutability": "view",
      "type": "function"
    },
    {
      "inputs": [],
      "name": "getCandidates",
      "outputs": [
        {
          "components": [
            {
              "internalType": "uint256",
              "name": "id",
              "type": "uint256"
            },
            {
              "internalType": "string",
              "name": "name",
              "type": "string"
            },
            {
              "internalType": "uint256",
              "name": "voteCount",
              "type": "uint256"
            }
          ],
          "internalType": "struct Voting.Candidate[]",
          "name": "",
          "type": "tuple[]"
        }
      ],
      "stateMutability": "view",
      "type": "function"
    },
    {
      "inputs": [],
      "name": "getRemainingTime",
      "outputs": [
        {
          "internalType": "uint256",
          "name": "",
          "type": "uint256"
        }
      ],
      "stateMutability": "view",
      "type": "function"
    },
    {
      "inputs": [],
      "name": "isElectionActive",
      "outputs": [
        {
          "internalType": "bool",
          "name": "",
          "type": "bool"
        }
      ],
      "stateMutability": "view",
      "type": "function"
    },
    {
      "inputs": [],
      "name": "owner",
      "outputs": [
        {
          "internalType": "address",
          "name": "",
          "type": "address"
        }
      ],
      "stateMutability": "view",
      "type": "function"
    },
    {
      "inputs": [
        {
          "internalType": "uint256",
          "name": "_candidateId",
          "type": "uint256"
        }
      ],
      "name": "vote",
      "outputs": [],
      "stateMutability": "nonpayable",
      "type": "function"
    },
    {
      "inputs": [
        {
          "internalType": "address",
          "name": "",
          "type": "address"
        }
      ],
      "name": "voters",
      "outputs": [
        {
          "internalType": "bool",
          "name": "",
          "type": "bool"
        }
      ],
      "stateMutability": "view",
      "type": "function"
    },
    {
      "inputs": [],
      "name": "votingEnd",
      "outputs": [
        {
          "internalType": "uint256",
          "name": "",
          "type": "uint256"
        }
      ],
      "stateMutability": "view",
      "type": "function"
    },
    {
      "inputs": [],
      "name": "votingStart",
      "outputs": [
        {
          "internalType": "uint256",
          "name": "",
          "type": "uint256"
        }
      ],
      "stateMutability": "view",
      "type": "function"
    }
  ],
  "bytecode": "0x608060405234801561000f575f5ffd5b5060405161143f38038061143f833981810160405281019061003191906103a1565b335f5f6101000a81548173ffffffffffffffffffffffffffffffffffffffff021916908373ffffffffffffffffffffffffffffffffffffffff16021790555042600381905550603c816100849190610428565b4261008f9190610469565b6004819055505f5f90505b825181101561013757600160405180606001604052808381526020018584815181106100c9576100c861049c565b5b602002602001015181526020015f815250908060018154018082558091505060019003905f5260205f2090600302015f909190919091505f820151815f0155602082015181600101908161011d91906106d0565b50604082015181600201555050808060010191505061009a565b50505061079f565b5f604051905090565b5f5ffd5b5f5ffd5b5f5ffd5b5f601f19601f8301169050919050565b7f4e487b71000000000000000000000000000000000000000000000000000000005f52604160045260245ffd5b61019a82610154565b810181811067ffffffffffffffff821117156101b9576101b8610164565b5b80604052505050565b5f6101cb61013f565b90506101d78282610191565b919050565b5f67ffffffffffffffff8211156101f6576101f5610164565b5b602082029050602081019050919050565b5f5ffd5b5f5ffd5b5f67ffffffffffffffff82111561022957610228610164565b5b61023282610154565b9050602081019050919050565b8281835e5f83830152505050565b5f61025f61025a8461020f565b6101c2565b90508281526020810184848401111561027b5761027a61020b565b5b61028684828561023f565b509392505050565b5f82601f8301126102a2576102a1610150565b5b81516102b284826020860161024d565b91505092915050565b5f6102cd6102c8846101dc565b6101c2565b905080838252602082019050602084028301858111156102f0576102ef610207565b5b835b8181101561033757805167ffffffffffffffff81111561031557610314610150565b5b808601610322898261028e565b855260208501945050506020810190506102f2565b5050509392505050565b5f82601f83011261035557610354610150565b5b81516103658482602086016102bb565b91505092915050565b5f819050919050565b6103808161036e565b811461038a575f5ffd5b50565b5f8151905061039b81610377565b92915050565b5f5f604083850312156103b7576103b6610148565b5b5f83015167ffffffffffffffff8111156103d4576103d361014c565b5b6103e085828601610341565b92505060206103f18582860161038d565b9150509250929050565b7f4e487b71000000000000000000000000000000000000000000000000000000005f52601160045260245ffd5b5f6104328261036e565b915061043d8361036e565b925082820261044b8161036e565b91508282048414831517610462576104616103fb565b5b5092915050565b5f6104738261036e565b915061047e8361036e565b9250828201905080821115610496576104956103fb565b5b92915050565b7f4e487b71000000000000000000000000000000000000000000000000000000005f52603260045260245ffd5b5f81519050919050565b7f4e487b71000000000000000000000000000000000000000000000000000000005f52602260045260245ffd5b5f600282049050600182168061051757607f821691505b60208210810361052a576105296104d3565b5b50919050565b5f819050815f5260205f209050919050565b5f6020601f8301049050919050565b5f82821b905092915050565b5f6008830261058c7fffffffffffffffffffffffffffffffffffffffffffffffffffffffffffffffff82610551565b6105968683610551565b95508019841693508086168417925050509392505050565b5f819050919050565b5f6105d16105cc6105c78461036e565b6105ae565b61036e565b9050919050565b5f819050919050565b6105ea836105b7565b6105fe6105f6826105d8565b84845461055d565b825550505050565b5f5f905090565b610615610606565b6106208184846105e1565b505050565b5b81811015610643576106385f8261060d565b600181019050610626565b5050565b601f8211156106885761065981610530565b61066284610542565b81016020851015610671578190505b61068561067d85610542565b830182610625565b50505b505050565b5f82821c905092915050565b5f6106a85f198460080261068d565b1980831691505092915050565b5f6106c08383610699565b9150826002028217905092915050565b6106d9826104c9565b67ffffffffffffffff8111156106f2576106f1610164565b5b6106fc8254610500565b610707828285610647565b5f60209050601f831160018114610738575f8415610726578287015190505b61073085826106b5565b865550610797565b601f19841661074686610530565b5f5b8281101561076d57848901518255600182019150602085019450602081019050610748565b8683101561078a5784890151610786601f891682610699565b8355505b6001600288020188555050505b505050505050565b610c93806107ac5f395ff3fe608060405234801561000f575f5ffd5b5060043610610091575f3560e01c806385a386351161006457806385a386351461011f5780638da5cb5b1461013d578063a3ec138d1461015b578063c84422391461018b578063efb98bcf146101a957610091565b80630121b93f1461009557806306a49fce146100b1578063101158af146100cf5780633477ee2e146100ed575b5f5ffd5b6100af60048036038101906100aa919061062e565b6101c7565b005b6100b96103b1565b6040516100c691906107e0565b60405180910390f35b6100d76104b0565b6040516100e4919061080f565b60405180910390f35b6101076004803603810190610102919061062e565b6104b6565b60405161011693929190610870565b60405180910390f35b610127610571565b604051610134919061080f565b60405180910390f35b610145610577565b60405161015291906108eb565b60405180910390f35b6101756004803603810190610170919061092e565b61059b565b6040516101829190610973565b60405180910390f35b6101936105b8565b6040516101a09190610973565b60405180910390f35b6101b16105d1565b6040516101be919061080f565b60405180910390f35b60035442101561020c576040517f08c379a0000000000000000000000000000000000000000000000000000000008152600401610203906109d6565b60405180910390fd5b6004544210610250576040517f08c379a000000000000000000000000000000000000000000000000000000000815260040161024790610a3e565b60405180910390fd5b60025f3373ffffffffffffffffffffffffffffffffffffffff1673ffffffffffffffffffffffffffffffffffffffff1681526020019081526020015f205f9054906101000a900460ff16156102da576040517f08c379a00000000000000000000000000000000000000000000000000000000081526004016102d190610aa6565b60405180910390fd5b6001805490508110610321576040517f08c379a000000000000000000000000000000000000000000000000000000000815260040161031890610b0e565b60405180910390fd5b600160025f3373ffffffffffffffffffffffffffffffffffffffff1673ffffffffffffffffffffffffffffffffffffffff1681526020019081526020015f205f6101000a81548160ff0219169083151502179055506001818154811061038a57610389610b2c565b5b905f5260205f2090600302016002015f8154809291906103a990610b86565b919050555050565b60606001805480602002602001604051908101604052809291908181526020015f905b828210156104a7578382905f5260205f2090600302016040518060600160405290815f820154815260200160018201805461040e90610bfa565b80601f016020809104026020016040519081016040528092919081815260200182805461043a90610bfa565b80156104855780601f1061045c57610100808354040283529160200191610485565b820191905f5260205f20905b81548152906001019060200180831161046857829003601f168201915b50505050508152602001600282015481525050815260200190600101906103d4565b50505050905090565b60035481565b600181815481106104c5575f80fd5b905f5260205f2090600302015f91509050805f0154908060010180546104ea90610bfa565b80601f016020809104026020016040519081016040528092919081815260200182805461051690610bfa565b80156105615780601f1061053857610100808354040283529160200191610561565b820191905f5260205f20905b81548152906001019060200180831161054457829003601f168201915b5050505050908060020154905083565b60045481565b5f5f9054906101000a900473ffffffffffffffffffffffffffffffffffffffff1681565b6002602052805f5260405f205f915054906101000a900460ff1681565b5f60035442101580156105cc575060045442105b905090565b5f60045442106105e3575f90506105f4565b426004546105f19190610c2a565b90505b90565b5f5ffd5b5f819050919050565b61060d816105fb565b8114610617575f5ffd5b50565b5f8135905061062881610604565b92915050565b5f60208284031215610643576106426105f7565b5b5f6106508482850161061a565b91505092915050565b5f81519050919050565b5f82825260208201905092915050565b5f819050602082019050919050565b61068b816105fb565b82525050565b5f81519050919050565b5f82825260208201905092915050565b8281835e5f83830152505050565b5f601f19601f8301169050919050565b5f6106d382610691565b6106dd818561069b565b93506106ed8185602086016106ab565b6106f6816106b9565b840191505092915050565b5f606083015f8301516107165f860182610682565b506020830151848203602086015261072e82826106c9565b91505060408301516107436040860182610682565b508091505092915050565b5f6107598383610701565b905092915050565b5f602082019050919050565b5f61077782610659565b6107818185610663565b93508360208202850161079385610673565b805f5b858110156107ce57848403895281516107af858261074e565b94506107ba83610761565b925060208a01995050600181019050610796565b50829750879550505050505092915050565b5f6020820190508181035f8301526107f8818461076d565b905092915050565b610809816105fb565b82525050565b5f6020820190506108225f830184610800565b92915050565b5f82825260208201905092915050565b5f61084282610691565b61084c8185610828565b935061085c8185602086016106ab565b610865816106b9565b840191505092915050565b5f6060820190506108835f830186610800565b81810360208301526108958185610838565b90506108a46040830184610800565b949350505050565b5f73ffffffffffffffffffffffffffffffffffffffff82169050919050565b5f6108d5826108ac565b9050919050565b6108e5816108cb565b82525050565b5f6020820190506108fe5f8301846108dc565b92915050565b61090d816108cb565b8114610917575f5ffd5b50565b5f8135905061092881610904565b92915050565b5f60208284031215610943576109426105f7565b5b5f6109508482850161091a565b91505092915050565b5f8115159050919050565b61096d81610959565b82525050565b5f6020820190506109865f830184610964565b92915050565b7f456c656374696f6e20686173206e6f74207374617274656400000000000000005f82015250565b5f6109c0601883610828565b91506109cb8261098c565b602082019050919050565b5f6020820190508181035f8301526109ed816109b4565b9050919050565b7f456c656374696f6e2068617320656e64656400000000000000000000000000005f82015250565b5f610a28601283610828565b9150610a33826109f4565b602082019050919050565b5f6020820190508181035f830152610a5581610a1c565b9050919050565b7f596f75206861766520616c726561647920766f7465642e0000000000000000005f82015250565b5f610a90601783610828565b9150610a9b82610a5c565b602082019050919050565b5f6020820190508181035f830152610abd81610a84565b9050919050565b7f496e76616c69642063616e6469646174652e00000000000000000000000000005f82015250565b5f610af8601283610828565b9150610b0382610ac4565b602082019050919050565b5f6020820190508181035f830152610b2581610aec565b9050919050565b7f4e487b71000000000000000000000000000000000000000000000000000000005f52603260045260245ffd5b7f4e487b71000000000000000000000000000000000000000000000000000000005f52601160045260245ffd5b5f610b90826105fb565b91507fffffffffffffffffffffffffffffffffffffffffffffffffffffffffffffffff8203610bc257610bc1610b59565b5b600182019050919050565b7f4e487b71000000000000000000000000000000000000000000000000000000005f52602260045260245ffd5b5f6002820490506001821680610c1157607f821691505b602082108103610c2457610c23610bcd565b5b50919050565b5f610c34826105fb565b9150610c3f836105fb565b9250828203905081811115610c5757610c56610b59565b5b9291505056fea264697066735822122015bf7d01ecdfd855646ce024864c4baea83adbc5f0caeb1f95dd9384e7419f5864736f6c634300081c0033",
  "linkReferences": {},
  "deployedLinkReferences": {},
  "immutableReferences": {},
  "inputSourceName": "project/contracts/Voting.sol",
  "buildInfoId": "solc-0_8_28-b9f474518bac7d426592df116977dc8c0e4de0b7"
}