{
  "_format": "hh3-artifact-1",
  "contractName": "DecentralizedVoting",
  "sourceName": "contracts/Voting.sol",
  "abi": [
    {
      "inputs": [
        {
          "internalType": "string[]",
          "name": "_candidateNames",
          "type": "string[]"
        },
        {
          "internalType": "uint256",
          "name": "_durationInMinutes",
          "type": "uint256"
        }
      ],
      "stateMutability": "nonpayable",
      "type": "constructor"
    },
    {
      "anonymous": false,
      "inputs": [
        {
          "indexed": true,
          "internalType": "uint256",
          "name": "candidateId",
          "type": "uint256"
        },
        {
          "indexed": false,
          "internalType": "uint256",
          "name": "newVoteCount",
          "type": "uint256"
        }
      ],
      "name": "VoteCast",
      "type": "event"
    },
    {
      "anonymous": false,
      "inputs": [
        {
          "indexed": false,
          "internalType": "address",
          "name": "voterAddress",
          "type": "address"
        }
      ],
      "name": "VoterWhitelisted",
      "type": "event"
    },
    {
      "inputs": [],
      "name": "candidateCount",
      "outputs": [
        {
          "internalType": "uint256",
          "name": "",
          "type": "uint256"
        }
      ],
      "stateMutability": "view",
      "type": "function"
    },
    {
      "inputs": [
        {
          "internalType": "uint256",
          "name": "",
          "type": "uint256"
        }
      ],
      "name": "candidates",
      "outputs": [
        {
          "internalType": "uint256",
          "name": "id",
          "type": "uint256"
        },
        {
          "internalType": "string",
          "name": "name",
          "type": "string"
        },
        {
          "internalType": "uint256",
          "name": "voteCount",
          "type": "uint256"
        }
      ],
      "stateMutability": "view",
      "type": "function"
    },
    {
      "inputs": [
        {
          "internalType": "uint256",
          "name": "_candidateId",
          "type": "uint256"
        }
      ],
      "name": "castVote",
      "outputs": [],
      "stateMutability": "nonpayable",
      "type": "function"
    },
    {
      "inputs": [],
      "name": "electionOfficial",
      "outputs": [
        {
          "internalType": "address",
          "name": "",
          "type": "address"
        }
      ],
      "stateMutability": "view",
      "type": "function"
    },
    {
      "inputs": [
        {
          "internalType": "uint256",
          "name": "_candidateId",
          "type": "uint256"
        }
      ],
      "name": "getCandidate",
      "outputs": [
        {
          "components": [
            {
              "internalType": "uint256",
              "name": "id",
              "type": "uint256"
            },
            {
              "internalType": "string",
              "name": "name",
              "type": "string"
            },
            {
              "internalType": "uint256",
              "name": "voteCount",
              "type": "uint256"
            }
          ],
          "internalType": "struct DecentralizedVoting.Candidate",
          "name": "",
          "type": "tuple"
        }
      ],
      "stateMutability": "view",
      "type": "function"
    },
    {
      "inputs": [
        {
          "internalType": "address",
          "name": "",
          "type": "address"
        }
      ],
      "name": "hasVoted",
      "outputs": [
        {
          "internalType": "bool",
          "name": "",
          "type": "bool"
        }
      ],
      "stateMutability": "view",
      "type": "function"
    },
    {
      "inputs": [
        {
          "internalType": "address",
          "name": "",
          "type": "address"
        }
      ],
      "name": "isWhitelisted",
      "outputs": [
        {
          "internalType": "bool",
          "name": "",
          "type": "bool"
        }
      ],
      "stateMutability": "view",
      "type": "function"
    },
    {
      "inputs": [],
      "name": "votingEnd",
      "outputs": [
        {
          "internalType": "uint256",
          "name": "",
          "type": "uint256"
        }
      ],
      "stateMutability": "view",
      "type": "function"
    },
    {
      "inputs": [
        {
          "internalType": "address",
          "name": "_voter",
          "type": "address"
        }
      ],
      "name": "whitelistVoter",
      "outputs": [],
      "stateMutability": "nonpayable",
      "type": "function"
    }
  ],
  "bytecode": "0x608060405234801561000f575f5ffd5b50604051610c1b380380610c1b83398101604081905261002e91610137565b5f80546001600160a01b0319163317905561004a81603c610279565b6100549042610296565b6001555f5b82518110156100eb5760028054905f610071836102a9565b91905055506040518060600160405280600254815260200184838151811061009b5761009b6102c1565b60209081029190910181015182525f9181018290526002548252600381526040909120825181559082015160018201906100d59082610359565b5060409190910151600290910155600101610059565b505050610413565b634e487b7160e01b5f52604160045260245ffd5b604051601f8201601f191681016001600160401b038111828210171561012f5761012f6100f3565b604052919050565b5f5f60408385031215610148575f5ffd5b82516001600160401b0381111561015d575f5ffd5b8301601f8101851361016d575f5ffd5b80516001600160401b03811115610186576101866100f3565b8060051b61019660208201610107565b918252602081840181019290810190888411156101b1575f5ffd5b6020850192505b838310156102515782516001600160401b038111156101d5575f5ffd5b8501603f81018a136101e5575f5ffd5b60208101516001600160401b03811115610201576102016100f3565b610214601f8201601f1916602001610107565b8181526040838301018c1015610228575f5ffd5b8160408401602083015e5f602083830101528085525050506020820191506020830192506101b8565b602097909701519698969750505050505050565b634e487b7160e01b5f52601160045260245ffd5b808202811582820484141761029057610290610265565b92915050565b8082018082111561029057610290610265565b5f600182016102ba576102ba610265565b5060010190565b634e487b7160e01b5f52603260045260245ffd5b600181811c908216806102e957607f821691505b60208210810361030757634e487b7160e01b5f52602260045260245ffd5b50919050565b601f82111561035457805f5260205f20601f840160051c810160208510156103325750805b601f840160051c820191505b81811015610351575f815560010161033e565b50505b505050565b81516001600160401b03811115610372576103726100f3565b6103868161038084546102d5565b8461030d565b6020601f8211600181146103b8575f83156103a15750848201515b5f19600385901b1c1916600184901b178455610351565b5f84815260208120601f198516915b828110156103e757878501518255602094850194600190920191016103c7565b508482101561040457868401515f19600387901b60f8161c191681555b50505050600190811b01905550565b6107fb806104205f395ff3fe608060405234801561000f575f5ffd5b5060043610610090575f3560e01c80633eb76b9c116100635780633eb76b9c1461012f57806385a3863514610144578063a9a981a31461015b578063ad39b7eb14610164578063bddf1ce91461018e575f5ffd5b806309eef43e146100945780633477ee2e146100cb57806335b8e820146100ed5780633af32abf1461010d575b5f5ffd5b6100b66100a2366004610694565b60056020525f908152604090205460ff1681565b60405190151581526020015b60405180910390f35b6100de6100d93660046106c1565b6101a1565b6040516100c293929190610706565b6101006100fb3660046106c1565b610249565b6040516100c2919061072e565b6100b661011b366004610694565b60046020525f908152604090205460ff1681565b61014261013d3660046106c1565b610331565b005b61014d60015481565b6040519081526020016100c2565b61014d60025481565b5f54610176906001600160a01b031681565b6040516001600160a01b0390911681526020016100c2565b61014261019c366004610694565b61055e565b60036020525f9081526040902080546001820180549192916101c290610769565b80601f01602080910402602001604051908101604052809291908181526020018280546101ee90610769565b80156102395780601f1061021057610100808354040283529160200191610239565b820191905f5260205f20905b81548152906001019060200180831161021c57829003601f168201915b5050505050908060020154905083565b61026b60405180606001604052805f8152602001606081526020015f81525090565b60035f8381526020019081526020015f206040518060600160405290815f82015481526020016001820180546102a090610769565b80601f01602080910402602001604051908101604052809291908181526020018280546102cc90610769565b80156103175780601f106102ee57610100808354040283529160200191610317565b820191905f5260205f20905b8154815290600101906020018083116102fa57829003601f168201915b505050505081526020016002820154815250509050919050565b60015442106103875760405162461bcd60e51b815260206004820152601860248201527f566f74696e672077696e646f772068617320656e6465642e000000000000000060448201526064015b60405180910390fd5b335f9081526004602052604090205460ff166103f95760405162461bcd60e51b815260206004820152602b60248201527f596f7520617265206e6f7420617574686f72697a65642f77686974656c69737460448201526a32b2103a37903b37ba329760a91b606482015260840161037e565b335f9081526005602052604090205460ff16156104765760405162461bcd60e51b815260206004820152603560248201527f4964656e7469747920766572696669636174696f6e206661696c65643a20596f6044820152743a903430bb329030b63932b0b23c903b37ba32b21760591b606482015260840161037e565b5f8111801561048757506002548111155b6104d35760405162461bcd60e51b815260206004820152601960248201527f496e76616c69642063616e6469646174652063686f73656e2e00000000000000604482015260640161037e565b335f908152600560209081526040808320805460ff1916600117905583835260039091528120600201805491610508836107a1565b9190505550807fc31875ef3ed5138b71a0c1da7e494bc4d2ba4f567084ea481ec9c45f3a93948b60035f8481526020019081526020015f206002015460405161055391815260200190565b60405180910390a250565b5f546001600160a01b031633146105d35760405162461bcd60e51b815260206004820152603360248201527f4f6e6c792074686520656c656374696f6e206f6666696369616c2063616e207060448201527232b93337b936903a3434b99030b1ba34b7b71760691b606482015260840161037e565b6001600160a01b0381165f9081526004602052604090205460ff161561063b5760405162461bcd60e51b815260206004820152601d60248201527f566f74657220697320616c72656164792077686974656c69737465642e000000604482015260640161037e565b6001600160a01b0381165f81815260046020908152604091829020805460ff1916600117905590519182527f5cb979827581f5a2d6accf830511f42bc79705dde54d001643bb14fea7f75d58910160405180910390a150565b5f602082840312156106a4575f5ffd5b81356001600160a01b03811681146106ba575f5ffd5b9392505050565b5f602082840312156106d1575f5ffd5b5035919050565b5f81518084528060208401602086015e5f602082860101526020601f19601f83011685010191505092915050565b838152606060208201525f61071e60608301856106d8565b9050826040830152949350505050565b60208152815160208201525f60208301516060604084015261075360808401826106d8565b9050604084015160608401528091505092915050565b600181811c9082168061077d57607f821691505b60208210810361079b57634e487b7160e01b5f52602260045260245ffd5b50919050565b5f600182016107be57634e487b7160e01b5f52601160045260245ffd5b506001019056fea2646970667358221220a2f79a62310b77fe47821aa7620238b54cd46dad1c1f5f92e3b8346d107bf65464736f6c634300081c0033",
  "linkReferences": {},
  "deployedLinkReferences": {},
  "immutableReferences": {},
  "inputSourceName": "project/contracts/Voting.sol",
  "buildInfoId": "solc-0_8_28-50ec6b0c54a2cc0c9092b485750a7e3059f1b8d6"
}